:100000006F00003C00000000800400003404000089
:1000100000000000000000000000000000000000E0
:1000200000000000000000000000000000000000D0
:100030003404000000000000340400000000000050
:1000400034040000340400003404000034040000D0
:1000500034040000340400003404000034040000C0
:1000600034040000340400003404000034040000B0
:1000700034040000340400003404000034040000A0
:100080003404000034040000340400003404000090
:1000900034040000340400003404000001000000B7
:1000A000634E050263C305042E86AA857D5515C2DD
:1000B00085466378B6006356C00006068606E36C84
:1000C000B6FE014563E4C500918D558D858205829C
:1000D000F5FA82808682C93F2E8582823305A04050
:1000E0006347B000B305B040C1B7B305B0408682E6
:1000F000653F3305A0408282868263C7050063495D
:1001000005005D372E858282B305B040E35B05FEB6
:100110003305A040513F3305B0408282000099C6AC
:10012000014363D7B600B685054319A00143AE86E7
:100130008D8EBA87B303D700B382F3406349500270
:1001400093C7F6FFFD87FD8EBA9681473386F5404B
:100150006343C00293C7F5FFFD87FD8DB695AE875B
:100160003385E5409306A00263140302828085076D
:10017000A38FC7FED1B73306F5008342060033864E
:10018000F600850723005600D1B7A38FD7FEFD17D1
:100190001386D5FFE30CF6FCE369F7FE8280B70710
:1001A00000E09387470F9843137707086DFF3727C1
:1001B000307813078708B70600E098C39386460F88
:1001C0007147A54571569C4293F70708EDFF3353DD
:1001D000E5001373F300B3B76500B307F04093F77E
:1001E0007702938707039A97A20793E757089CC261
:1001F0007117E31AC7FC8280B70700E083A7470F97
:100200008280B70700E09387470F9843211106CA01
:1002100022C826C61377070C9306000C630BD70081
:1002200002C42E84DDED9C4389C793F7070891E350
:10023000E1370144D24022854244B24461018280C8
:100240007D1709EF98431367070C98C3DDB737078D
:100250001000B70700E005079387470F944313F694
:10026000060879FEB30794401D476353F700BA8729
:1002700091C62AC23EC049371245824734000D4715
:10028000B6856346F704A246370700E0232CD70E55
:10029000B3069500014703C3060005073386E50052
:1002A0002300660085066355F7001306D7FF65F641
:1002B00013874700136707F82304E100A2463707B6
:1002C00000E0BE94232AD70EE3C384F8A5B7338693
:1002D000E4002A960346060005078506A38FC6FE9E
:1002E0004DB78144D5B7611122C006C22E84113F9B
:1002F00092402285024421018280011106CE22CC47
:1003000026CA2A83635D05089397F60193D6F70101
:10031000D9E685473303A0403EC0058A1304100682
:1003200019C213041004BA8459141A853AC81AC29F
:100330002EC61AC44533A5472243B2454247330669
:10034000850063E4A70013060503938714001A854C
:100350002380C4003AC83EC62EC4B9339246A24593
:10036000B24742472A8363FEB602824699C6130605
:10037000D0022380C700938724003385E740238081
:1003800007009357F501AA9785873306A700814692
:1003900063CBF600F2406244D2440561828002C021
:1003A000ADBFBE8459B7B305D7008342F6FF03C380
:1003B00005007D1623805500230066008506C9BF11
:1003C000970100209381C10317010020130181438D
:1003D000096513050588731005308D461705000063
:1003E000130545C2558D73105530138541C09705CF
:1003F0000020938565C101466356B50010C1110503
:10040000E34EB5FE1305807F938541C0138641C03E
:100410006388C500144194C111059105E39AC5FE96
:10042000B7F700E0054798C39307406B7390173404
:1004300073002030732510349D33732500308533CD
:1004400073253034A93B73252034913BB70700E076
:100450009387470F9843137707086DFF05671307C6
:1004600057A898C3B70700E09387470F98431377BF
:1004700007086DFF37B7AAAA130737A898C301A0CA
:10048000371702401C47B7068000D58F1CC7AA87C4
:1004900003C7070001E73385A74082808507CDBFEA
:1004A000130141FAA2CAA6C886CC2AC02EC2328441
:1004B000B68402CA03470400A30FE10055C39306A4
:1004C0005002630BD7000504124682478545130589
:1004D000F101829726C421A20347140013060003EA
:1004E00093062400A30FE1003AC66312C7083684BE
:1004F00001468146254519A8139726003697060719
:100500000504B386E5000347F4FF0546930507FDA0
:1005100013F3F50FE37265FE19C2A30FE10036C8AD
:1005200061466353D60032C81306C006814563187E
:10053000C7000347040085450504A30FE1000346F7
:10054000F101130740066304E6066366C70213075A
:1005500080056305E60A130730066302E60C2DF6F4
:10056000E64056445245C6441301C10582809307B4
:1005700000023EC6ADBF13075007630AE602130729
:100580008007630DE60613073007E31FE6F2938743
:100590004400844036CC3EC42685D53DE246AA853B
:1005A000635CD008C2463246381826851DA0938762
:1005B00044003EC495C91306B6F8181093361600C9
:1005C00088400146A945153BC24632463818AA85DF
:1005D0000810B1361246AA85281882478297D2475A
:1005E000A244AA973ECAF9B5130750076315E6005F
:1005F00018108546F1B718108146D9B78840130600
:1006000086FA938744001810854613361600C145B4
:100610003EC4E531C2463246AA85381855BF938795
:1006200044003EC49C40C2463246A30FF100381835
:1006300085451305F10171BF1246268579BF111159
:1006400032C62A862EC436C8814534001305602E72
:1006500006C23ACA3ECC36C0A135924071018280B2
:10066000B7270240054798C3B7170240370708016C
:1006700023A207001307170898C337079F0098C7DE
:10068000984393166700E3DD06FED843B716024091
:10069000719B13672700D8C32147DC42B18BE39ECF
:1006A000E7FEB70700E023AC070E1307000823AAF4
:1006B000E70E8280611106C222C05D37B717024083
:1006C000984FC1769386F67F1367570398CFD84328
:1006D0003706F1FF7D16758FD8C3984F1367072033
:1006E00098CF37170140130707401443F18E14C306
:1006F000D84713670720D8C7D8471377F7DFD8C77D
:10070000B72701409387074023A6070223A80702C3
:100710001D47D8DB3707E00098CB984713671700D1
:1007200098C798471367870098C79847218B75FF2C
:1007300098471367470098C7B7270140938707403A
:100740009847118B75FFB7160240D84A13671700F8
:10075000D8CAB7260140370702409386C64414CB57
:10076000938641C054CB854654C78D669386065AFE
:1007700014C7144793E6160014C7D843B7060E00F3
:100780009386261013670710D8C39847558F98C7CC
:100790009847B7064000558F98C7B74702409387E0
:1007A00007809843C166558F98C39843B706FCFFEE
:1007B000FD16758F98C398438176FD16758F98C383
:1007C000370702401C43898BF5DF89475CC383D51B
:1007D00041C001451305407F9D35B7F600E09846BE
:1007E0009D67938707533E979C46998FE3CE07FEFC
:0807F000C1BF000025640A00EE
:00000001FF
