:100000006F00A067000000003C070000F006000041
:1000100000000000000000000000000000000000E0
:1000200000000000000000000000000000000000D0
:10003000F006000000000000F006000000000000D4
:10004000F0060000F0060000F0060000F0060000D8
:10005000F0060000F0060000F0060000F0060000C8
:10006000F0060000F0060000F0060000F0060000B8
:10007000F0060000F0060000F0060000F0060000A8
:10008000F0060000F0060000F0060000F006000098
:10009000F0060000F0060000F0060000010000007D
:1000A000634E050263C305042E86AA857D5515C2DD
:1000B00085466378B6006356C00006068606E36C84
:1000C000B6FE014563E4C500918D558D858205829C
:1000D000F5FA82808682C93F2E8582823305A04050
:1000E0006347B000B305B040C1B7B305B0408682E6
:1000F000653F3305A0408282868263C7050063495D
:1001000005005D372E858282B305B040E35B05FEB6
:100110003305A040513F3305B0408282000099C6AC
:10012000014363D7B600B685054319A00143AE86E7
:100130008D8EBA87B303D700B382F3406349500270
:1001400093C7F6FFFD87FD8EBA9681473386F5404B
:100150006343C00293C7F5FFFD87FD8DB695AE875B
:100160003385E5409306A00263140302828085076D
:10017000A38FC7FED1B73306F5008342060033864E
:10018000F600850723005600D1B7A38FD7FEFD17D1
:100190001386D5FFE30CF6FCE369F7FE8280B70710
:1001A00000E09387470F9843137707086DFF3727C1
:1001B000307813078708B70600E098C39386460F88
:1001C0007147A54571569C4293F70708EDFF3353DD
:1001D000E5001373F300B3B76500B307F04093F77E
:1001E0007702938707039A97A20793E757089CC261
:1001F0007117E31AC7FC8280B70700E083A7470F97
:100200008280B70700E09387470F9843211106CA01
:1002100022C826C61377070C9306000C630BD70081
:1002200002C42E84DDED9C4389C793F7070891E350
:10023000E1370144D24022854244B24461018280C8
:100240007D1709EF98431367070C98C3DDB737078D
:100250001000B70700E005079387470F944313F694
:10026000060879FEB30794401D476353F700BA8729
:1002700091C62AC23EC049371245824734000D4715
:10028000B6856346F704A246370700E0232CD70E55
:10029000B3069500014703C3060005073386E50052
:1002A0002300660085066355F7001306D7FF65F641
:1002B00013874700136707F82304E100A2463707B6
:1002C00000E0BE94232AD70EE3C384F8A5B7338693
:1002D000E4002A960346060005078506A38FC6FE9E
:1002E0004DB78144D5B7611122C006C22E84113F9B
:1002F0009240228502442101828037F700E01C47AA
:100300003E951C47898FE3CE07FE8280011106CE01
:1003100022CC26CA2A83635D05089397F60193D6FB
:10032000F701D9E685473303A0403EC0058A130490
:10033000100619C213041004BA8459141A853AC855
:100340001AC22EC61AC47933A5472243B245424782
:100350003306850063E4A7001306050393871400A2
:100360001A852380C4003AC83EC62EC4353B924647
:10037000A245B24742472A8363FEB602824699C627
:100380001306D0022380C700938724003385E740FB
:10039000238007009357F501AA9785873306A700A6
:1003A000814663CBF600F2406244D244056182800C
:1003B00002C0ADBFBE8459B7B305D7008342F6FF74
:1003C00003C305007D1623805500230066008506C3
:1003D000C9BF5111194506C422C226C037140140B5
:1003E000293F1C40B70410FFFD1437078000E58F3C
:1003F000D98F1CC0930700021CC81945FD3DB707E3
:1004000040001CC81C40370700F17D17F98F3707E3
:100410000002D98F1CC01945CD353707200018C8F8
:100420001C40A2401945E58FD98F1CC0124482445C
:100430003101E1B55111194506C422C226C0753DEE
:1004400037140140B70740001CC81C40B70400F136
:10045000FD1437070002E58FD98F1CC01945713D87
:100460001C40370710FF7D17F98F37078000D98FA1
:100470001CC0930700021CC8194541351C403707B2
:100480000008A240E58FD98F1CC0930700041CC848
:1004900012448244194531018DB5311106C822C676
:1004A00026C42A86A145194532C22EC0B935124646
:1004B0008245B71701401317860161876359070A00
:1004C0009843B70600F1FD16758FB7060008558FE3
:1004D00098C31307000498CB06063145B7140140B2
:1004E0002EC232C0193D9840370410FF7D14B70763
:1004F0008000618F5D8F98C0930700029CC83145D2
:10050000ED3BB706200094C8984092450246618FA3
:10051000558F98C0FD15C1F91945C5339840370668
:1005200000F17D16718F37060008518F98C01307B0
:10053000000498C81945D1339840B7078000194581
:10054000618F5D8F98C0930700029CC87D339844EB
:1005500019456533B706200094C89840C240194534
:10056000618F558F324498C0A244510179B3370747
:10057000400098CB9843B70600F1FD16758FB7067B
:100580000002558F98C389BF411106C622C426C2F6
:100590002A8481351305600A09372285FD3D153D02
:1005A0001305700ADD3D371701401C43B70600F103
:1005B000FD16F58FB7060008D58F1CC393070004FE
:1005C0001CCB8144A1471945371401403EC0353347
:1005D0001840B70610FFFD16758FB7068000558FBF
:1005E00018C01307000218C83145013B184486049F
:1005F00082471377070493F4F40F19C393E41400AC
:10060000B706200014C81040370710FF7D17798EF9
:10061000558EFD1710C093F7F70FD5F71945F1392F
:100620001C40370710FF7D1737068000F98FD18FE8
:100630001CC0930700021CC83145C131B706200019
:1006400014C81C40370710FF7D17F98FD58F1CC0C9
:10065000194565311C40370700F17D17F98F3707C1
:100660000008D98F1CC0930700041CC8E133B240B6
:100670002244268592444101828097010020938183
:1006800021D8170100201301E1170965130505881A
:10069000731005308D46170500001305A596558D7E
:1006A00073105530138541C0938541C00146635690
:1006B000B50010C11105E34EB5FE17050000130586
:1006C0006537938541C0138641C06388C5001441D6
:1006D00094C111059105E39AC5FEB7F700E00547FF
:1006E00098C38567938727977390173473002030DA
:1006F000732510346D347325003055347325303430
:10070000793C73252034613CB70700E09387470F9D
:100710009843137707086DFF0567130757A898C319
:10072000B70700E09387470F9843137707086DFFDB
:1007300037B7AAAA130737A898C301A037170240F2
:100740001C47B7068000D58F1CC7AA8703C70700C0
:1007500001E73385A74082808507CDBF130141FAA9
:10076000A2CAA6C886CC2AC02EC23284B68402CAC7
:1007700003470400A30FE10055C393065002630B27
:10078000D70005041246824785451305F10182977B
:1007900026C429A20347140013060003930624006D
:1007A000A30FE1003AC66312C708368401468146AA
:1007B000254519A813972600369706070504B38622
:1007C000E5000347F4FF0546930507FD13F3F50F16
:1007D000E37265FE19C2A30FE10036C86146635398
:1007E000D60032C81306C00681456318C700034708
:1007F000040085450504A30FE1000346F10113073A
:1008000040066304E6066366C702130780056306B5
:10081000E60A130730066303E60C2DF6E64056445D
:100820005245C6441301C1058280930700023EC6AB
:10083000ADBF13075007630AE60213078007630E74
:10084000E60613073007E31FE6F29387440084406F
:1008500036CC3EC42685D53DE246AA85635DD008E8
:10086000C2463246381826851DA0938744003EC4F0
:100870009DC91306B6F81810933616008840014635
:10088000A9456934C24632463818AA850810EFF0E7
:100890001F891246AA85281882478297D247A24408
:1008A000AA973ECAF1B5130750076315E600181062
:1008B0008546E9B718108146D1B78840130686FAF5
:1008C000938744001810854613361600C1453EC470
:1008D000353CC2463246AA8538184DBF938744003E
:1008E0003EC49C40C2463246A30FF10038188545ED
:1008F0001305F10169BF1246268579BF111132C671
:100900002A862EC436C8814534001305602E06C2DF
:100910003ACA3ECC36C09935924071018280B727E1
:100920000240054798C3B71702403707080123A2C2
:1009300007001307170898C337079F0098C7984305
:1009400093166700E3DD06FED843B7160240719B9D
:1009500013672700D8C32147DC42B18BE39EE7FE33
:10096000B70700E023AC070E1307000823AAE70E21
:100970008280611106C222C05D37371702401C4FCA
:10098000B70600F1FD1693E757031CCFB7170140D8
:10099000984313040004758FB7060008558F98C359
:1009A00080CB9843B70610FFFD16758FB706800001
:1009B000558F98C31307000298CB213C1305600A9A
:1009C000E93C1145D93C2285C93CAD3419341305A5
:1009D000600AE1341545D1341145C134A13CD53A02
:1009E0001305600A5D3C01454D3C09457D34993451
:1009F0001D45593E2A840565130505772188EFF0CA
:100A0000DF8F7DD43D4549362A843945B53E2205E0
:100A10004204498C35458D3EB36585000565130557
:100A200085A2E93DF1B700003078256C780A000016
:00000001FF
